:020000040800F2
:10000000981A002005010008971F0008EB19000846
:10001000951F000887020008012500080000000065
:100020000000000000000000000000009B1F00080E
:100030008902000800000000991F00089D1F0008A9
:100040001F0100081F0100081F0100081F01000810
:100050001F0100081F0100081F0100081F01000800
:100060001F0100081F0100081F0100081F010008F0
:100070001F0100081F0100081F0100081F010008E0
:100080001F0100081F0100081F0100081F010008D0
:100090001F0100081F0100081F0100081F010008C0
:1000A0001F0100081F0100081F0100081F010008B0
:1000B000012000080D200008192000081F01000879
:1000C0001F0100081F0100081F0100081F01000890
:1000D0001F010008E9240008F52400081F0100089A
:1000E0008B0200081F0100081F010008DFF810D074
:1000F00000F0A8F800480047D9370008AFF30080A7
:10010000981A00200648804706480047FEE7FEE7A9
:10011000FEE7FEE7FEE7FEE7FEE7FEE7FEE7FEE7B7
:10012000FF1F0008ED000008202A04DB203A21FA16
:1001300002F00021704721FA02F3D040C2F1200200
:10014000914008431946704740EA01039B0703D0DA
:1001500009E008C9121F08C0042AFAD203E011F806
:10016000013B00F8013B521EF9D27047D2B201E0C8
:1001700000F8012B491EFBD270470022F6E710B5AC
:1001800013460A4604461946FFF7F0FF204610BD05
:1001900010B5044604E00B7800F8013B03B1491C9C
:1001A000521EF8D2204610BD10B5002200E0521CAD
:1001B000835C8C5CA34201D1002BF8D1D8B2E1B2B0
:1001C000401A10BD30B505460020034600E05B1C18
:1001D000934205D2EC5CC85C201A01D1002CF6D108
:1001E00030BD2DE9F05F0546002092469B468846CB
:1001F0000646814640241BE02846414647462246A3
:10020000FFF792FF53465A46C01A914110D3114648
:100210001846224600F028F82D1A67EB01084F46D1
:1002200022460120002100F01FF817EB00094E4183
:10023000201EA4F10104DFDC484631462A4643462D
:10024000BDE8F09F064C074D06E0E06840F0010372
:1002500094E8070098471034AC42F6D3FFF74AFF02
:100260005450000874500008202A04DB203A00FA99
:1002700002F1002070479140C2F1200320FA03F3FD
:10028000194390407047FEE770474FF4805000F0EC
:1002900089B872B6FEE710B590F821100022022945
:1002A00005D00421816380F82020012010BD016861
:1002B0000B6823F00E030B6001680B6823F0010349
:1002C0000B6090F84030C46B012101FA03F36360C6
:1002D00080F8211080F82020104610BD10B590F84D
:1002E00021100024022903D00421816301243DE070
:1002F00001680A6822F00E020A6001680A6822F0AA
:1003000001020A601A4A0168914201D1012121E0EB
:10031000174A1432914201D110211BE0144A2832AD
:10032000914201D1891515E0114A3C32914201D127
:1003300089140FE00E4A5032914202D14FF48031BD
:1003400008E00B4A6432914202D14FF4801101E07F
:100350004FF08071064A083A5160012180F821105F
:10036000002180F82010416B01B18847204610BD64
:100370000800024070B5044600F016F90546601CFE
:1003800002D004480078044400F00EF9401BA0425B
:10039000FAD370BD5C0000200149896802F04EBBB1
:1003A00000000020044910B50A68024202D008602B
:1003B000FFF7F2FF10BD0000140401402DE9F84FD3
:1003C000DFF8B8910024A9F1040B23460F2709F1A7
:1003D000040AABF1040EC9E00125A5402A40AA4257
:1003E0007DD1674ED1F804C0ACEB0608B44532D0DD
:1003F00014DCBCF1030F3AD009DCBCF1000F2AD0A9
:10040000BCF1010F1CD0BCF1020F31D11DE0BCF1D9
:10041000110F17D0BCF1120F2AD119E0B8F5881FBF
:1004200019D006DCB8F5803F15D0B8F5801F1FD174
:1004300011E0B8F5001F0ED0B8F5041F18D10AE07E
:10044000CB6815E0CB681B1D12E0CB6808330FE0CA
:10045000CB680C330CE08B682BB1012B4FF00803F9
:1004600003D0456104E0042302E0056100E00023BD
:10047000FF2A01D8064601E000F104064FEA840590
:1004800001D9A5F12005D6F8008007FA05FC28EA75
:100490000C0803FA05F548EA0508C6F800804D681F
:1004A000ED0062D5374DAE6946F00106AE61AD692B
:1004B00024F0030605F001050095334D06EB050C0D
:1004C000DCF80850A607360F07FA06F825EA0805F3
:1004D000DFF8B880404503D14FF0000817E044E052
:1004E000DFF8AC80404502D14FF001080FE0DFF8A3
:1004F000A480404502D14FF0020808E0DFF8988060
:10050000404502D14FF0030801E04FF0040808FA1B
:1005100006F848EA0508CCF808804D68D9F800606C
:10052000ED024D4601D5164300E096432E604D681E
:10053000DAF80060AD02554601D5164300E0964357
:100540002E604D68DBF80060AD035D4601D51643B3
:1005500000E096432E604D68DEF80060ED037546BE
:1005600001D5164300E096432E60641C0D682A46B0
:10057000E5407FF431AFBDE8F88F0000080401408A
:10058000000011100010024000000140000801406E
:10059000000C014000100140001401408068084038
:1005A00000D00120704700000148806870470000BB
:1005B0005C00002070B5040025D094F83D000025B3
:1005C00020B984F83C50204600F04EF9242084F8ED
:1005D0003D002068016821F0010101602068016888
:1005E00041F4004101602068016821F4004101608C
:1005F00000F0A0FA4D4A6168914201D84C4900E0F0
:100600004C49884201D2012070BD4B492368B0FBA0
:10061000F1F15E6826F03F060E435E606368934228
:1006200006D94FF4967359434FF47A73B1FBF3F143
:100630002368491C1E6A26F03F063143196261682F
:10064000914210D84900401EB0FBF1F2521CC2F397
:100650000B02042A01D2042022E0B0FBF1F0401C7E
:10066000C0F30B001CE0A268F2B301EBC10303EB83
:100670000116431EB3FBF6F35B1C43F480431B05DA
:1006800049D092B301EBC10202EB0111401EB0FB55
:10069000F1F0401CC0F30B0040F4804040F40040F7
:1006A0002168CA694CF6FF739A431043C861D4E9C4
:1006B000071001432068026822F0C0021143016064
:1006C000D4E9030101432068826848F2FF339A436A
:1006D00011438160D4E9050108432168CA6822F00A
:1006E000FF021043C86001E00EE016E020680168D8
:1006F00041F0010101602564202084F83D0025635C
:1007000084F83E50002070BD01EB4106431EB3FB50
:10071000F6F35B1CB3E70120C2E701EB4101401E89
:10072000B0FBF1F0401CC0F30B00B7E7A08601005E
:1007300080841E0000093D0040420F002DE9F84F63
:100740001F4690468A460446DDF82890FFF72CFFA6
:10075000054694F83D0020287FD119230122404905
:100760002046009501F0D4F9002876D194F83C0099
:10077000012872D0012084F83C0020680168C90774
:1007800003D1016841F0010101602068016821F492
:1007900000610160212084F83D00102084F83E00B3
:1007A00000262664C4F824806785608D20852D4846
:1007B000E0622B464A465146204601F02FF990B997
:1007C000206841698069009036E02A464946204603
:1007D00001F044FA50B1206C042804D1206801686B
:1007E00041F4007101600120BDE8F88F606A216862
:1007F00000780861606A401C6062618D491E6185F5
:10080000218D491E89B2218522685369DB435B072C
:100810000BD451B100781061606A401C6062608D39
:10082000401E6085208D401E20852A464946204670
:1008300001F042F90028CED1208D0028C5D154F80E
:100840003D0B016841F400710160202004F81E098D
:10085000E67766770020C7E7FFE70220C4E70000DD
:10086000020010000000FFFF10B586B000210091CB
:1008700001910291039100681349884222D1134CDF
:10088000A06940F00800A061A069694600F0080076
:1008900004904FF4407000901220019003200390C8
:1008A0000B48FFF78BFD0B48416841F0E06141F0D8
:1008B00002014160E06940F40010E061E06900F489
:1008C0000010049006B010BD00540040001002401B
:1008D000000C014000000140024881680278114488
:1008E000816070475C000020074810B5016841F046
:1008F00010010160032000F075F80F2000F006F8E9
:1009000000F024F8002010BD0020024070B50D4D0D
:1009100004464FF47A712878B1FBF0F00A4909686F
:10092000B1FBF0F000F0DCFA48B9102C07D200223D
:100930002146501E00F036F800206C6070BD01208A
:1009400070BD00005C000020680000200C4808B565
:10095000816941F001018161816901F0010100912A
:10096000C16941F08051C161C06900F080500090C0
:100970000448416821F0E06141F00071416008BD28
:100980000010024000000140002809DB00F01F02B7
:10099000012191404009800000F1E020C0F80011E1
:1009A00070470000F0B40E4B1B680C46C3F30223E3
:1009B000C3F10705042D00D90425191D072901D20B
:1009C000002300E0DB1E012606FA05F1491E214046
:1009D00099409E40761E16403143F0BC01F0BCBDEC
:1009E0000CED00E0064900F0070208684FF6FF032F
:1009F000184040EA0220034A104308607047000094
:100A00000CED00E00000FA052DE9F0470F46050067
:100A100061D0434E306800F00700B84209D2306818
:100A200020F0070038433060306800F00700B8421B
:100A300051D128683B4C810712D5400703D5606827
:100A400040F4E06060602878000703D5606840F4F7
:100A5000605060606068A96820F0F0000843606042
:100A60002878C00728D06868012810D0216802289B
:100A700010D0890700292EDA616821F003010143B3
:100A80006160FFF791FD804641F288390DE02168F1
:100A90008903EFE78901EDE7FFF786FDA0EB080189
:100AA000494502D90320BDE8F0876068696800F015
:100AB0000C00B0EB810FEFD1306800F00700B842B6
:100AC0000BD9306820F0070038433060306800F000
:100AD0000700B84201D00120E5E72878400705D596
:100AE0006068E96820F4E0600843606028780007E7
:100AF00006D56068296920F4605040EAC100606052
:100B000000F038F86168084AC1F30311515CC8402D
:100B10000649086006480068FFF7F8FE0020C2E7B3
:100B2000002002400010024032440008680000200B
:100B3000600000200448054900684968044AC1F380
:100B40000221515CC840704768000020001002403C
:100B5000424400080448054900684968044AC1F352
:100B6000C221515CC840704768000020001002405C
:100B7000424400080E4A51680E4801F00C03042B51
:100B800011D0082B0FD10C48C1F38343C903C05CBB
:100B90000AD55168084AC1F34041921E515C054A8A
:100BA0005043B0FBF1F070470449484370470000E0
:100BB0000010024000127A002244000800093D00A3
:100BC0002DE9F84F040070D02078C04DC00749D0FF
:100BD0006868C0F38100012807D06868C0F381000D
:100BE000022809D16868C00306D52868800339D572
:100BF00060680028E7D035E06068B0F5803F0BD032
:100C000010B1B0F5A02F11D0286820F480302860F2
:100C1000286820F4802002E0286840F480302860B2
:100C2000606890B1FFF7C0FC06460AE0286840F40F
:100C300080202860F0E700BFFFF7B6FC801B642827
:100C400073D828688003F7D50CE0FFF7ADFC0646A3
:100C500005E000BFFFF7A8FC801B6428F0D82868D7
:100C60008003F7D420789A4E80074FF001094FF0A7
:100C7000000839D5686810F00C0F07D06868C0F319
:100C80008100022809D16868C00306D4286880075B
:100C900014D52069012808D110E02069B0B1C6F848
:100CA0000090FFF781FC074605E00AE1FFF77CFCB6
:100CB000C01B0228C4D828688007F7D52868616956
:100CC00020F0F80040EAC10028600DE0C6F800807E
:100CD000FFF76AFC074604E0FFF766FCC01B02282A
:100CE00023D828688007F7D4207800072CD57948C6
:100CF000A169D9B1C0F80090FFF756FC074604E09F
:100D0000FFF752FCC01B02280FD8686A8007F7D58E
:100D100071484FF4FA510068B0FBF1F0009000BF49
:100D20000098411E0091FAD20EE080E0C0F80080E9
:100D3000FFF73AFC074604E0FFF736FCC01B022829
:100D400075D8686A8007F7D42078400760D5E869CD
:100D50000027C00008D4E86940F08050E861E869E5
:100D6000012700F0805000905C480168C90513D449
:100D70000168834641F480710160FFF715FC8246EB
:100D800006E000BFFFF710FCA0EB0A0064284ED875
:100D9000DBF80000C005F5D5E06801280AD008B1ED
:100DA000052813D0286A20F001002862286A20F064
:100DB000040002E0286A40F001002862E06841F285
:100DC000883B98B1FFF7F0FB82460BE0286A40F0C1
:100DD00004002862EEE700BFFFF7E6FBA0EB0A0184
:100DE00059455AD8286A8007F6D50CE0FFF7DCFB96
:100DF000824605E0FFF7D8FBA0EB0A0159454CD825
:100E0000286A8007F6D41FB1E86920F08050E861B5
:100E1000E06988B36968C1F38101022944D00228DE
:100E2000C6F8608004D0FFF7BFFB044638E034E02A
:100E3000FFF7BAFB074604E0FFF7B6FBC01B02282A
:100E40002BD828688001F7D4206AB0F5803F05D1FF
:100E50006868A16820F4003008436860D4E908019C
:100E60000843696821F4741108436860C6F860900B
:100E7000FFF79AFB044606E025E000BFFFF794FB6E
:100E8000001B022809D828688001F7D51BE000BFA5
:100E9000FFF78AFB001B022802D90320BDE8F88F68
:100EA00028688001F4D40EE00128F7D06868226A2F
:100EB00000F48031914204D1616A00F470108842DC
:100EC00001D00120EAE70020E8E70000001002401E
:100ED000000042428004424268000020007000404E
:100EE00010B5401EB0F1807F01D3012010BD4FF03E
:100EF000E02460610F21601701F02EFB0020A0614B
:100F000007202061002010BD7047704770B590F831
:100F10003C20012A26D0012480F83C40022280F89F
:100F20003D2003685A689D6822F070060A683243C3
:100F30005A600D4B02689A4208D0B2F1804F05D03A
:100F40000A4B9A4202D00A4B9A4204D1496825F0D2
:100F500080031943916080F83D40002180F83C10E7
:100F6000084670BD022070BD002C01400004004006
:100F70000008004010B5040003D094F83D0010B103
:100F800007E0012010BD002084F83C00204600F05E
:100F90001FF8022084F83D00211D206801F042F86E
:100FA000012084F8460084F83E0084F83F0084F86D
:100FB000400084F8410084F8420084F8430084F83B
:100FC000440084F8450084F83D00002010BD000076
:100FD00008B501681D48B1F1804F11D01C4A9142FB
:100FE0001DD1C16941F00201C161C069002200F058
:100FF0000200009011461D20FFF7D4FC1D201FE0C9
:10100000C16941F00101C161C069002200F0010025
:10101000009011461C20FFF7C5FC1C2010E00D4A73
:10102000914211D1C16941F00401C161C06900223E
:1010300000F00400009011461E20FFF7B3FC1E20B4
:10104000BDE80840FFF7A0BC08BD0000001002404A
:10105000000400400008004090F83D10012901D034
:1010600001207047022180F83D100168CA6842F0F3
:101070000102CA6000680B49884208D0B0F1804F75
:1010800005D00949884202D00849884204D18168C4
:1010900001F00701062903D0016841F00101016058
:1010A00000207047002C0140000400400008004070
:1010B00070B5044690F83C000025012817D00126A1
:1010C00084F83C60022084F83D002068826822F0A9
:1010D000770222F47F4282600868502838D00DDC05
:1010E00020284FD005DC90B3102811D14AE002200F
:1010F00070BD302846D040280AD13BE060282FD070
:1011000070280DD0B0F5805F03D0B0F5005F12D02D
:10111000012584F83D60002084F83C00284670BD1D
:10112000CB68D1E90121206800F0C5FF2068816803
:1011300041F0770109E0CB68D1E90121206800F096
:10114000BAFF2068816841F480418160E1E719E0DD
:10115000CA684968206801F063F85021206806E0F9
:10116000CA684968206801F06CF86021206800F0C6
:10117000ACFFCEE7CA684968206801F051F8402109
:101180002068F4E7226801461046F0E770472DE931
:10119000F04104460068C66805694FF00007A907DA
:1011A00013D5B10711D5F91E016101202077206800
:1011B00080698007204602D0FFF7E8FF04E000F0D6
:1011C000A5F8204600F037F92777680716D570078D
:1011D00014D521686FF00400086102202077206890
:1011E000806910F4407F204602D0FFF7CFFF04E073
:1011F00000F08CF8204600F01EF92777280715D557
:10120000300713D521686FF00800086104202077AB
:101210002068C0698007204602D0FFF7B7FF04E0CE
:1012200000F074F8204600F006F92777E80616D596
:10123000F00614D521686FF01000086108202077AF
:101240002068C06910F4407F204602D0FFF79EFF5F
:1012500004E000F05BF8204600F0EDF82777E8079F
:1012600008D0F00706D021686FF001000861204621
:1012700000F030F9280608D5300606D521686FF051
:10128000800008612046FFF73FFE680608D570061B
:1012900006D521686FF040000861204600F02EF965
:1012A000A8060AD5B00608D521686FF020000861AD
:1012B0002046BDE8F041FFF728BEBDE8F081000000
:1012C00000B585B000210091019102910391006861
:1012D0000B49884211D10B48816941F004018161B9
:1012E0008069694600F004000490402000900220CC
:1012F000019003900448FFF761F805B000BD0000BD
:10130000000400400010024000080140704770B522
:10131000044690F83C0000260D4601280FD001201D
:1013200084F83C006AB1042A1DD0082A2FD00C2A68
:101330003FD00126002084F83C00304670BD0220DA
:1013400070BD206800F0CAFE2068816941F0080184
:1013500081612068816921F00401816120688169CF
:101360002A69114311E0206800F0E0FE20688169DD
:1013700041F4006181612068816921F480618161AB
:10138000206881692A6941EA02218161D2E72068E7
:1013900000F0F8FE2068C16941F00801C1612068D1
:1013A000C16921F00401C1612068C1692A69114342
:1013B00011E0206800F012FF2068C16941F400616B
:1013C000C1612068C16921F48061C1612068C1697F
:1013D0002A6941EA0221C161ACE710B5040003D0DB
:1013E00094F83D0010B107E0012010BD002084F802
:1013F0003C00204600F01EF8022084F83D00211D2C
:10140000206800F00FFE012084F8460084F83E00BA
:1014100084F83F0084F8400084F8410084F84200DA
:1014200084F8430084F8440084F8450084F83D00C3
:10143000002010BD7047704710B50446022249B124
:1014400004290ED0082913D094F84100012816D0A1
:10145000012010BD94F83E000128F9D184F83E2007
:101460000FE094F83F000128F2D184F83F2008E013
:1014700094F840000128EBD184F8402001E084F882
:1014800041200122206800F009FE0F4920688842AF
:1014900003D1426C42F4004242642068884208D082
:1014A000B0F1804F05D00949884202D008498842EE
:1014B00004D1816801F00701062903D0016841F0D9
:1014C00001010160002010BD002C0140000400401B
:1014D0000008004002680749B2F1804F02D18A68D3
:1014E000521C8A600068044A904201D101200870B1
:1014F000704700000000002000080040704770475F
:1015000070470000F8B5016804460868CA684B696E
:1015100010F00F0F4FF0000559D003F0010602F450
:101520009077374365D0C10705D0D10503D5616CED
:1015300041F001016164410705D5D90703D0616C11
:1015400041F002016164810705D5D90703D0616CC0
:1015500041F004016164010707D502F02001314325
:1015600003D0616C41F008016164616C00293AD0DC
:10157000800604D5900602D5204600F0A3FE206820
:101580004069616CC0F38010090700D460B3204645
:1015900000F071FE20684069400621D520681430B3
:1015A00050E8001F21F0400140E80012002AF5D168
:1015B000E06BA8B16D494163E06BFEF78FFE002838
:1015C00011D0E06B416B01B0BDE8F04008478306E5
:1015D0000FD593060DD52046BDE8F84000F072BE49
:1015E0002046FFF78DFFF8BD2046FFF789FF6564B1
:1015F000F8BD266B2023012E7CD1C6067AD5D606EF
:1016000078D508684868009048694FF0020640069F
:1016100040D5E16B086840680004000CE8D0A28D5A
:101620008242E5D9E085886920282DD020680C30D9
:1016300050E8001F21F4807140E80012002AF5D123
:101640002068143050E8001F21F0010140E800122A
:10165000002AF5D12068143050E8001F21F0400125
:1016600040E80012002AF5D184F842302563206852
:101670000C3050E8001F21F0100140E80012002A51
:10168000F5D1E06BFEF707FE6663A08DE18D401A91
:1016900081B22AE0A08DE18D401A81B2E08D002850
:1016A000A6D00029A4D022680C3252E8000F20F402
:1016B000907042E80007002FF5D12068143050E800
:1016C000002F22F0010240E80027002FF5D184F816
:1016D0004230256320680C3050E8002F22F01002C1
:1016E00040E80023002BF5D166632046FFF707FF93
:1016F000F8BDFFE705062BD5150629D594F841005E
:101700002128F5D1A068B0F5805F01D12069B0B182
:10171000206A411C2162216800784860E08C401EEC
:101720000004000CE084E3D12068C16821F080014E
:10173000C1602068C16841F04001C160D8E7206AFB
:101740000088C0F308004860206A801C2062E5E73A
:101750004006CDD55006CBD5CA68204622F04002BF
:10176000CA6084F8413000F03FF9C1E76722000801
:1017700070B5040004D094F84100002510B106E0D3
:10178000012070BD84F84050204600F023F824204A
:1017900084F841002068C16821F40051C1602046EE
:1017A00000F0F2FD2068016921F490410161206898
:1017B000416921F02A0141612068C16841F400516A
:1017C000C1606564202084F8410084F842006563AC
:1017D000002070BDF0B585B00024009401940294FF
:1017E000039403683F4F02203F4903223F4D4602C6
:1017F000BB4225D18B6943F480438B618B6903F431
:10180000804304938B6943F004038B6189690392DD
:1018100001F0040104910102CDE900106946284657
:10182000FEF7CCFDCDE90064694628460294FEF738
:10183000C5FD002211462520FFF7B4F8252028E039
:101840002B4FBB4229D1CB6943F40033CB61CB6929
:1018500003F4003304938B6943F004038B618969BB
:10186000039201F0040104910421CDE900106946BE
:101870002846FEF7A3FD0820CDE900046946284666
:101880000294FEF79BFD002211462620FFF78AF8FE
:101890002620FFF779F805B0F0BD164DAB42FAD11E
:1018A000CB6943F48023CB61CB6903F48023049399
:1018B0008B6943F008038B6189690F4D01F00801C2
:1018C000CDE90321CDE9006069462846FEF776FDA3
:1018D000E814CDE90004694628460294FEF76EFD3F
:1018E000D9E7000000380140001002400008014024
:1018F0000044004000480040000C014090F8423095
:10190000202B01D00220704721B11AB100230363BC
:1019100000F096BD0120704710B500680749884265
:101920000BD10748807802F045F805490122BDE84F
:101930001040891C0348FFF7E1BF10BD003801408B
:1019400000000020380200202DE9F843044690F8FA
:101950004100984616460D46202802D00220BDE8D8
:10196000F88385B17EB100206064212084F84100B5
:10197000FEF71AFEA6848146E684A0682027B0F50B
:10198000805F02D003E00120E9E7206910B12E4614
:1019900000250EE000260CE08021204600F06BFDC3
:1019A000A8B9C6B116F8010B21684860E08C401E4A
:1019B000E084E08C4B464FF00002CDF80080002818
:1019C000EAD14FF04001204600F055FD40B184F8C7
:1019D00041700320C3E735F8020BC0F30800E3E7CA
:1019E00084F841700020BAE77047FEE701684A6951
:1019F000D24352050FD46FF480624A61002140F84F
:101A0000301F202242738173026942F00402026196
:101A1000017301207047002070470000F8B50446AC
:101A2000C06A1E460D461746082807D0012805D073
:101A300010F5803F02D0206B122804D12068016885
:101A400041F480710160134600224FF001112046DD
:101A5000009600F05DF840B120680068C00502D52E
:101A60004FF4007020640320F8BD2069B0F5804F6A
:101A70000ED00620216800EAD51040F0F000086181
:101A800033463A460B49204600F08AF878B902E01E
:101A900005F0FE0000E0E8B2216808610549334620
:101AA0003A46891F204600F07BF80028DCD0012050
:101AB000F8BD00000800010070B516460D4604464A
:101AC0001EE02046FFF792FF08B1012070BD681CA0
:101AD00016D0FEF769FD801BA84200D885B92068A2
:101AE0004069C04340070BD5002044F8300F202147
:101AF0006173A073216941F0200121612073E4E743
:101B000020684069C0434007DBD4002070BD00005E
:101B10002DE9F047984617460D460446C1F307469F
:101B2000DDF820902AE000BFB8F1FF3F26D0FEF795
:101B30003BFDA0EB0901414502D8B8F1000F1DD1D2
:101B40002068012E16D0806925EA00000004000CF0
:101B500012D00020B84211D1002044F8300F2021CB
:101B60006173A073216941F020012161207301207C
:101B7000BDE8F0874069E7E70120EBE72068012E28
:101B80000AD0806925EA00000004000C06D000207D
:101B9000B842C9D00020EBE74069F3E70120F7E73E
:101BA0002DE9F047984616460D4604464FF00009C9
:101BB0004FF0200AC1F3074723E020684069C04383
:101BC000400515D42068016841F400710160216866
:101BD0006FF480604861C4F8309084F83DA084F8C8
:101BE0003E90216C41F00401216484F83C9021E096
:101BF000701C06D0FEF7D8FCA0EB0800B04203D85A
:101C000016B1012F1FD021E02068012F15D0806967
:101C100025EA00000004000C18D000BF44F8309FF3
:101C200084F80DA084F80E90216941F02001216113
:101C300084F80C900120BDE8F087406925EA000097
:101C40000004000CEAD12068406901E02068806946
:101C500025EA00000004000CAFD1ECE770B5164691
:101C60000D4604461EE02046FFF7C0FE08B10120E5
:101C700070BD681C16D0FEF797FC801BA84200D8E8
:101C800085B920684069C04300060BD5002044F8A0
:101C9000300F20216173A073216941F0200121617F
:101CA0002073E4E720684069C0430006DBD40020CD
:101CB00070BD000070B586B000251F4801950395E2
:101CC000816941F020018161816901F02001049165
:101CD000816941F004018161816901F0040104918D
:101CE000816941F0080181618069012400F00800E8
:101CF00004900094694602941048FEF75FFB0226A8
:101D00000096CDE901540E4C69462046FEF756FB7D
:101D1000A01400900B48CDE9010669462046FEF765
:101D20004DFB002211462820FEF73CFE2820FEF73E
:101D30002BFE06B070BD00000010024000080140FC
:101D4000000C0140000011100D4810B50B49016056
:101D50000C49416000214FF480428160C0E90312C8
:101D600041618161C1610162FEF724FC002803D05A
:101D7000BDE81040FEF78DBA10BD000000540040D1
:101D80000C010020A086010010B586B00024164882
:101D9000009401940294039404944FF080410594BC
:101DA000016041F61F41C0E901140921C0E9031493
:101DB0008461FFF7DFF808B1FEF76BFA4FF480504B
:101DC000009069460848FFF773F908B1FEF761FA19
:101DD000049404A904480594FFF798F8002801D05A
:101DE000FEF757FA06B010BD6001002010B58EB0A6
:101DF00000240794089409940A940B941C216846C3
:101E00000C94FEF7BAF91E481C4901604721C0E94D
:101E1000011444F61F61C0E903148461FFF7AAF8B6
:101E200008B1FEF736FA4FF48050079007A914481E
:101E3000FFF73EF908B1FEF72CFA1148FFF7CDFA8B
:101E400008B1FEF726FA0B940BA90D480C94FFF786
:101E50005DF808B1FEF71DFA6020CDE90004029498
:101E60000022694606480494FFF751FA08B1FEF7CC
:101E700010FA0348FFF724FA0EB010BD000400402A
:101E8000A801002010B586B00024174800940194E2
:101E900002940394049413490594016041F61F4190
:101EA000C0E901144FF6FF71C0E903148461FFF724
:101EB00061F808B1FEF7EDF94FF4805000906946E3
:101EC0000948FFF7F5F808B1FEF7E3F9049404A90F
:101ED00005480594FFF71AF8002801D0FEF7D9F954
:101EE00006B010BD00080040F00100200C4810B5FD
:101EF0000A4901604FF4E1314160002181600C2208
:101F0000C160C0E904128161C161FFF731FC0028A2
:101F100003D0BDE81040FEF7BCB910BD0038014049
:101F2000380200200C4810B50A4901604FF4E13135
:101F30004160002181600C22C160C0E9041281610E
:101F4000C161FFF715FC002803D0BDE81040FEF783
:101F5000A0B910BD00440040800200200C4810B51C
:101F60000A4901604FF4E1314160002181600C2297
:101F7000C160C0E904128161C161FFF7F9FB00286B
:101F800003D0BDE81040FEF784B910BD0048004002
:101F9000C8020020FEE7FEE770477047FEF79CBCD2
:101FA00030B58FB028216846FEF7E7F814210AA85B
:101FB000FEF7E3F801210804CDE9001000240294A3
:101FC00002250491CDE907504FF4E01009906846CE
:101FD000FEF7F6FD08B172B6FEE70F20CDE90A055F
:101FE0004FF48060CDE90C4002210AA80E94FEF760
:101FF0000BFD002801D072B6FEE70FB030BD704770
:102000000148FFF7C4B80000600100200148FFF755
:10201000BEB80000A80100200148FFF7B8B80000D2
:10202000F0010020F0B50268194B1A4C1A4D4FF020
:102030008047984205D0B84203D0A04201D0A842C0
:1020400003D122F070064A683243984205D0B84264
:1020500003D0A04201D0A84203D122F44074CA6840
:1020600022434C6922F08002224302608A68C262E5
:102070000A688262984201D10969016301214161C4
:102080000169C90703D0016921F001010161F0BDB7
:10209000002C0140000400400008004010B501F091
:1020A0001F030121046A99408C430462016A9A402B
:1020B0001143016210BD10B5846842EA032224F482
:1020C0007F440A432243826010BD826822F070027E
:1020D0000A4342F0070181607047000030B5036A8F
:1020E000026A22F0010202624268846924F07305E8
:1020F0000C682C4323F002058B682B430A4DA84241
:102100000BD123F00805CB6822F440722B434D69B4
:1021100023F0040315438A692A43426084614968B5
:102120004163036230BD0000002C014030B5026AFB
:10213000036A23F010030362436884690D6824F482
:10214000E64444EA05248D6822F0200242EA0512A2
:102150000B4DA8420ED1CD6822F0800242EA051252
:102160004D6923F4406343EA85038D6922F0400200
:1021700043EA85034360846149688163026230BD3C
:10218000002C014030B5036A026A22F480720262B8
:102190004268C46923F4007324F073050C682C436F
:1021A0008D6843EA05230C4DA8420ED1CD6823F477
:1021B000006343EA05234D6922F4405242EA0512C6
:1021C0008D6923F4806342EA05124260C461496864
:1021D000C163036230BD0000002C014030B5046AC9
:1021E000026A22F4805202624268C3690D6823F4D5
:1021F000E64343EA05238D6824F4005444EA053499
:10220000064DA84204D14D6922F4804242EA85126B
:102210004260C36149680164046230BD002C014022
:1022200010B5036A046A24F001040462846924F08E
:10223000F00444EA021423F00A020A4384610262B1
:1022400010BD10B5036A046A24F0100404628469A6
:1022500023F0A00324F4704444EA023243EA01115B
:102260008261016210BD10B5406A0021C185C18440
:10227000FFF746F910BD01680C3151E8002F22F438
:10228000907241E80023002BF5D10168143151E828
:10229000002F22F0010241E80023002BF5D1016B51
:1022A000012909D101680C3151E8002F22F01002F8
:1022B00041E80023002BF5D1202180F842100021B5
:1022C0000163704708B590F84210222901D002201E
:1022D00008BD82684FF480539A4201D1016921B14F
:1022E000816A9A421BD04AB10AE00268816A526848
:1022F000C2F308020A80816A891C08E0026972B18F
:102300000268526802F07F020A70816A491C816289
:10231000C18D491E0904090CC18503D01BE0026868
:102320005268F1E70168CA6822F02002CA600168B9
:10233000CA6822F48072CA6001684A6922F0010208
:102340004A61202180F8421000214163026B012A7A
:1023500003D0FFF7E1FA002008BD016301680C31EA
:1023600051E8002F22F0100241E80023002BF5D1A4
:1023700001680A68D20602D50A6849680091818D11
:10238000FFF7BDF8E7E7000070B504460068016993
:10239000E26821F44051114301612169A0680843BA
:1023A000616908432168CA6841F20C639A43024399
:1023B000CA6020684169A26921F4407111434161FA
:1023C0001E492068884202D1FEF7C4FB01E0FEF7F7
:1023D000B1FB00EBC00101EB0012606864218000DA
:1023E000B2FBF0F3B3FBF1F36FF018067343B2FBEB
:1023F000F0F5B2FBF0F605EB8305322303EB051590
:10240000B5FBF1F5B6FBF1F605F0F00505EB0615A9
:10241000B2FBF0F6B2FBF0F0B0FBF1F06FF0180297
:10242000504306EB800003EB0010B0FBF1F0216895
:1024300000F00F002844886070BD000000380140A3
:1024400081628285C28500214164222180F8421088
:10245000016921B10168CA6842F48072CA600168EA
:102460004A6942F001024A610068C16841F02001F6
:10247000C160002070472DE9F843984617460D4685
:102480000446089E24E0701C22D0FEF78DF8A0EBD5
:102490000800B0421AD8CEB12068C168490717D5E4
:1024A000802D15D0402D13D00168C94309070FD4E2
:1024B00001680025406800902046FFF7DCFE0820F8
:1024C000606484F840500120BDE8F8830320FBE7F6
:1024D0002068006835EA000004D00020B842D2D05D
:1024E0000020F1E70120F9E70148FFF70BB80000F1
:1024F000380200200148FFF705B8000080020020E4
:10250000FEE700000FB4054B10B503A9044A02987A
:1025100000F042F810BC5DF814FB00004D310008DB
:10252000E40000200FB47CB50C0009AD01D0611EA1
:1025300000E00021CDE90001064B6A4629460898D3
:1025400000F02AF8002C02D0009A002111707CBC07
:102550005DF814FBEF2900080907090E002804DBC9
:1025600000F1E02080F80014704700F00F0000F147
:10257000E02080F8141D704702E008C8121F08C14F
:10258000002AFAD170477047002001E001C1121FF4
:10259000002AFBD1704700002DE9FF4F8DB00F4698
:1025A0000546002606E025280BD0DDE90F129047EE
:1025B0006D1C761C28780028F5D111B03046BDE896
:1025C000F08F0024A246A1460122E94900E004431D
:1025D00015F8013F203B02FA03F00842F7D12878B2
:1025E0002A2810D06FF02F022878A0F13001092995
:1025F00014D80AEB8A0102EB410144F0020400EB1B
:10260000010A6D1CF0E701CF5FEA000A03D544F42C
:102610000054CAF1000A44F002046D1C28782E28E8
:1026200017D115F8010F44F004042A280ED06FF0DA
:102630002F022878A0F1300109290AD809EB890175
:1026400002EB410100EB01096D1CF2E757F8049B16
:102650006D1C28786C280FD006DC4C2817D0682811
:102660000DD06A2814D104E0742810D07A280FD134
:102670000DE044F400140AE044F4801401E044F452
:1026800040146978814202D104F580146D1C6D1CE0
:1026900028786E281ED00CDC632830D004DC00289B
:1026A0008BD0582811D19FE0642867D069280CD1BD
:1026B00064E073282DD004DC6F2872D0702804D118
:1026C00094E075286ED078286DD0DDE90F12904720
:1026D000761C4BE1C4F30250022806D0032809D02F
:1026E000042801CF09D0066040E101CFF117C0E90D
:1026F00000613BE101CF068038E1067036E117F852
:10270000040B8DF8000000208DF80100EB4601203D
:1027100003E057F804BB4FF0FF3061074FF00001B2
:1027200002D40DE008F10101884649450FDA8045E1
:10273000F8DB1BF808100029F4D108E008F10101CA
:1027400088468142FADB1BF808100029F6D1DDE942
:102750000F23AAEB08008146214600F031F93044EE
:1027600000EB080604E0DDE90F121BF8010B9047AF
:10277000B8F10108F7D221464846F2E00A21C4F335
:1027800002524FF0000B0891022A04D001CFC1176A
:10279000032A09D00AE0FF1D27F00707F7E8020126
:1027A00008E02CE01EE01FE000B2C117042A01D1AE
:1027B00040B2C117021E71F1000206DA0023D0EB0D
:1027C000030063EB01012D2202E0220504D52B2238
:1027D0008DF82420012203E0E20701D02022F7E750
:1027E000904653E00A210BE0102109E010214FF040
:1027F000000B44F004044FF00809089103E008219D
:102800004FF0000B0891C4F30252022A04D001CF0A
:102810000021032A06D006E0FF1D27F00707F7E88E
:10282000020103E080B2042A00D1C0B24FF00008D8
:1028300022072BD52A78702A07D0DDF820C08CF02B
:10284000100C5CEA0B0C05D00EE040228DF8242021
:10285000012208E050EA010306D030238DF824302D
:102860008DF8252002229046089B83F0080353EA46
:102870000B030BD150EA010201D1620706D53022C9
:102880008DF824204FF00108A9F101092A78582A6F
:1028900004D038A20B9208AA0A920BE03AA2F9E7F8
:1028A0005B46089AFDF79DFC0B9B9B5C0A9A521EA7
:1028B0000A92137050EA0102F2D10A98ADEB0000BF
:1028C00000F1200B600702D524F4803401E04FF0C2
:1028D0000109D94502DDA9EB0B0000E0002000EB67
:1028E0000B0141440890AAEB010AE00306D4DDE99C
:1028F0000F232146504600F063F806444FF00009CC
:1029000008E009A911F80900DDE90F12904709F163
:102910000109761CC145F4DBE0030CD5DDE90F238A
:102920002146504600F04CF8064404E0DDE90F1261
:1029300030209047761C0899481E08900029F5DC45
:1029400008E00A980A990078491C0A91DDE90F12FB
:102950009047761CBBF10001ABF1010BF1DC214685
:102960005046DDE90F2300F019F806446D1C21E6FE
:102970000928010030313233343536373839616255
:102980006364656600000000303132333435363719
:102990003839414243444546000000002DE9F041EA
:1029A000044600251E461746880404D405E039462F
:1029B0002020B0476D1C641EF9D52846BDE8F08183
:1029C0002DE9F041044600251E469046C80301D576
:1029D000302700E02027880404D505E0414638462A
:1029E000B0476D1C641EF9D52846BDE8F0814A68E1
:1029F000002A06D00A68531C0B6010704868401EFD
:102A00004860704707490A68824201D30020704736
:102A1000801A4A68401E1044B0FBF2F288685043A6
:102A200070470000B4000020002803D002490DC800
:102A300081E80D0070470000B400002070B50E461C
:102A40004FF48051884214D10C48FDF7A7FD0C4C7F
:102A500080B1607800280CD1251DA868E968301A7B
:102A6000884206D307A0FFF74DFD0120AE606070DD
:102A7000207070BD0020607070BD0000000C01402F
:102A8000D000002042544E204952510D0A0000004F
:102A900010B54FF480510448FDF780FD002801D1A6
:102AA0000249487010BD0000000C0140D000002019
:102AB0000170426001B101210172002141728172F5
:102AC0007047000003788B4202D00170426070476B
:102AD0004368D21A0A4B1B889A42F8D301B10121EC
:102AE000027A8A42F3D0012312B1012A03D004E012
:102AF00019B1437201E001B983720172704700009D
:102B00008C00002070B50546002002468C240CE0A5
:102B1000AB5C58400023C60702D084EA500000E0B6
:102B200040085B1C082BF6DB521C8A42F0D370BDB8
:102B30000148007870470000B00000202DE9F04106
:102B4000984617460E4600F075F8002803DA6FF035
:102B50000200BDE8F0810F4900EB400001EB0014DA
:102B60000020A66260700546606AB04204D8301A40
:102B70004FF47A71B0FBF1F52846FFF743FFE062AE
:102B800007B13D60B8F1000F01D0C8F80000002087
:102B9000DFE70000DC08002010B50020074A0146EE
:102BA00001EB410302EB03131C7814B15B7803B112
:102BB000401C491C3229F3DB10BD0000DC0800205A
:102BC00070B50E46050009D0287838B1284600F0C7
:102BD00031F8002805DB6FF0010070BD6FF00200D6
:102BE00070BDFFF7D9FF11490978884202DB4FF029
:102BF000FF3070BD00F03CF8002802DA6FF00300EF
:102C000070BD00EB40020A48012100EB0214A01C39
:102C1000217061701F222946FDF7BAFA002084F85E
:102C20002100C4E90960E06270BD0000B00000202E
:102C3000DC08002070B50D4E0546002404EB44006E
:102C400006EB0010017849B1417839B1801C05D0FC
:102C5000291E03D02022FDF7B5FA28B1641C322CBE
:102C6000ECDB4FF0FF3070BD204670BDDC0800206B
:102C700030B5124C002000BF00EB400104EB011105
:102C80000978002918D0401C3228F5DB4FF0FF30BE
:102C90000246002101EB410304EB03152B7843B1FD
:102CA0006B7833B9AB6A03B96B6A934201D21A46A7
:102CB0000846491C3229EDDB30BD0000DC0800204D
:102CC0004FF416610148FDF758BA0000DC080020F7
:102CD0002DE9F0411D4616460F46FFF7ABFF0028D1
:102CE00003DA6FF00200BDE8F0810B4900EB400011
:102CF00001EB00100024406AB84204D8381A4FF49F
:102D00007A71B0FBF1F42046FFF77CFE06B1346027
:102D100005B128600020E6E7DC0800202DE9F04737
:102D200091460E4682460025002419F805800AEBDC
:102D3000050700BF28FA04F000F0010231193846F7
:102D400001F062F9641C082CF4DB6D1C102DEBDB28
:102D50005FF0000509EB0500002490F810800AEBF5
:102D6000050700BF28FA04F000F0010231193846C7
:102D7000083101F049F9641C082CF3DB6D1C102D9F
:102D8000E8DBBDE8F08700002DE9F0478246A2F1BC
:102D900030000D46092805D82C4800EB0210A0F59C
:102DA000407020E0294BA2F14101A03303EB021057
:102DB000192902D8A0F5826015E0A2F16101192954
:102DC00002D8A0F5C2600EE02148002101EB0113FA
:102DD000C35C934203D101EB0111084402E0491C9A
:102DE0000629F3D3401C80465FF00006002418F843
:102DF00006900AEB060700BF29FA04F000F0010272
:102E00002919384601F000F9641C082CF4DB761C03
:102E1000082EEBDB5FF0000608EB0600002490F8BC
:102E200008900AEB060700BF29FA04F000F001023F
:102E300029193846083101F0E7F8641C082CF3DB47
:102E4000761C082EE8DBBDE8F0870000144E000871
:102E5000C844000810B5002104231E4A084600F0AB
:102E600013FF1DA11D48FDF79FF950B11CA11B4880
:102E7000FDF79AF948B11CA11848FDF795F940B142
:102E80000EE0144A0423083206E0124A04231032EA
:102E900002E0104A052318321021002000F0F4FE51
:102EA0000E4814300078002813D00A4A0223403A12
:102EB0002021002000F0E8FE20210E4A084601F003
:102EC000C1F8064A20211432BDE81040282000F045
:102ED000FBB810BDA6440008445550003C12002029
:102EE00046554C4C000000004E4F54464F554E4442
:102EF00000000000F443000830B599B0FFF74CFE25
:102F00000446FFF715FE051B00D5002517A220215A
:102F10006846FFF707FB234618A2202108A8FFF701
:102F200001FB2B4615A2202110A8FFF7FBFA002178
:102F30006A46084601F086F80423124A1021002050
:102F400000F0A2FE08AA1021412001F07BF80D4AF2
:102F5000042308322021002000F096FE10AA202130
:102F6000412001F06FF819B030BD00005041524BC4
:102F7000494E472053595354454D00003A2025648B
:102F8000000000007644000830B5214885B00423D5
:102F9000C1686420B1FBF0F2B1FBF0F400FB121544
:102FA00000211C4A084600F06FFE1A4A0223403AEC
:102FB0001021002000F068FE174A1021202001F0A7
:102FC00041F8164A1021282000F07EF8114A022309
:102FD0003C3A2021002000F057FE20210E4A0846EE
:102FE00001F030F823460E4A102101A80095FFF7A2
:102FF00099FA01AA2021282001F024F8054A01238A
:10300000523A2021602000F03FFE05B030BD0000A4
:10301000C00000209E440008F44300087112002004
:10302000BC30000830B5214885B00423C168642055
:10303000B1FBF0F2B1FBF0F400FB121500211C4AC9
:10304000084600F021FE1A4A0223403A10210020CF
:1030500000F01AFE174A1021202000F0F3FF164A54
:103060001021282000F030F8114A02233C3A202198
:10307000002000F009FE20210E4A084600F0E2FF81
:1030800023460EA2102101A80095FFF74BFA01AAD2
:103090002021282000F0D6FF054A01234C3A2021A8
:1030A000602000F0F1FD05B030BD0000C000002040
:1030B00096440008F443000871120020256C752E18
:1030C0002530326C750000002DE9F0410E46117874
:1030D000154680292ED30E22B2EB111F2AD10907E3
:1030E0000A0C6978032701F03F0142EA8111AA78AE
:1030F000044602F03F0211430F4A002000EB001388
:1031000032F813308B4211D100EB001002EB400279
:10311000921C03D031462046FFF700FE04F1100058
:10312000EA193146BDE8F04100F08CBF401C1F2871
:10313000E4D3F3E72A46F4E7F64900088168491C1E
:10314000816000210174C1820183704713B54FF47F
:103150007A73012269460248FEF7F6FB00981CBD0F
:103160008002002070B50B4C00260546A060A670BA
:10317000E670267121210848FCF7FFFF66710DB14A
:10318000286800E00020A061BDE8704003A0FFF7C0
:10319000B9B90000940000209808002046534D2043
:1031A000696E69740D0A000008B1012100E0002178
:1031B0000248C17002A0FFF7A5B9000094000020EA
:1031C0005B4556545D2049525F494E3D25750D0AB9
:1031D0000000000008B1012100E000210248C17197
:1031E00002A0FFF78FB90000940000205B45565401
:1031F0005D2049525F4F55543D25750D0A00000072
:1032000070B515460C46002815D0014620220A4804
:10321000FCF7BEFF08490020234681F8200007483C
:103220000121054A4471057001712946BDE87040CD
:1032300003A0FFF767B970BD980800209400002034
:103240005B4556545D206C616E653D256420706C55
:103250006174653D257320636F6E663D25750D0AAB
:10326000000000002DE9FC41814CA06808B106680F
:1032700000E0002600F086FAA37842F210700127E1
:10328000420000214FF4FA65092B20D2DFE803F059
:103290000571808C96A0A9B2C2002079002816D0B2
:1032A000217120780D46A0B1009501AB6A463146E8
:1032B00070480195FFF70CFD00283CD06D496EA0C9
:1032C000FFF720F932466B4975A000F08BFFBDE88F
:1032D000FC8131466748FFF773FC014610F1020F8D
:1032E00016D0B1F1FF3F1BD021B1BDE8FC416FA06A
:1032F000FFF708B962795F4976A0FFF703F96570B7
:1033000031465C4800F094FF00F024FA012075E09B
:10331000584978A0FFF7F6F8324656497EA005E0F6
:103320007EA0FFF7EFF85349324684A002B0BDE813
:10333000F04100F057BFA771E66000986061019806
:103340004C4920611F2201F12100FCF721FF49486F
:1033500048492130C577DDE900237AA0FFF7D2F88C
:103360004448D4E904213346213000F099FF082075
:1033700073E000F0E7F928B1607808B104203DE07F
:1033800002203BE0A069301AA842A0D97AA008E048
:10339000E17809B1032031E0A169711A814296D91F
:1033A0007DA0FFF7AFF821E0E07828B1A069301ADE
:1033B00090428CD982A0F4E706201FE0E17909B1A0
:1033C00005201BE0A169711A814280D985A0E8E738
:1033D000E0790028F0D0A069301A9042D5D98CA0AD
:1033E000DFE7A069301AB0F5FA7FCED900F066F9B0
:1033F000072003E000F09CF920B10020BDE8FC416B
:1034000000F0D6B9A069301AA842BED98AA0FFF749
:1034100079F8F2E7A07900283FF459AF8E48027896
:10342000002AF9D00D4601701248019100916B46B7
:1034300001AA2130E168FFF781FB010010D087A0CD
:10344000FFF760F8A5710B4867703246213021699B
:1034500000F008FF00F07EF9012000F0A9F936E73E
:10346000044988A02131009AFFF74CF8EAE70000F0
:1034700094000020980800205B46534D5D2045587D
:1034800049542052454A4543543A204E4F54204611
:103490004F554E4420706C6174653D25730D0A00D4
:1034A0004E4F54464F554E44000000005B46534D6E
:1034B0005D20656E7465722052454A4543543A203A
:1034C000756E6B6E6F776E206572723D25640D0AA6
:1034D000000000005B46534D5D206F70656E2067F5
:1034E00061746520666F7220257320282575290D6B
:1034F0000A0000005B46534D5D20454E5445522066
:1035000052454A4543543A2044555020706C6174EA
:10351000653D25730D0A0000445550005B46534D30
:103520005D20656E7465722052454A4543543A20C9
:1035300044422046554C4C0D0A00000046554C4C68
:10354000000000005B46534D5D2045584954206201
:10355000696C6C20706C6174653D257320647572B4
:103560003D256C7573206665653D256C752063652A
:103570006E74730D0A0000005B46534D5D206F7042
:10358000656E2074696D656F7574202D3E20636CC7
:103590006F73650D0A0000005B46534D5D20776137
:1035A000697420626C6F636B65642074696D656F0C
:1035B0007574202D3E20636C6F73650D0A0000004A
:1035C0005B46534D5D207761697420636C65617261
:1035D0002074696D656F7574202D3E20636C6F7368
:1035E000650D0A005B46534D5D204F5554207761B1
:1035F000697420626C6F636B65642074696D656FBC
:103600007574202D3E20636C6F73650D0A000000F9
:103610005B46534D5D204F5554207761697420639C
:103620006C6561722074696D656F7574202D3E2024
:10363000636C6F73650D0A005B46534D5D20636CD0
:103640006F73652074696D656F7574202D3E2069F8
:10365000646C650D0A000000D00000205B46534DED
:103660005D20504159204F4B2062757420636F6D6F
:103670006D6974206661696C206572723D25640D08
:103680000A0000005B46534D5D20504159204F4BCE
:10369000202862746E2920636F6D6D6974204F4B12
:1036A00020706C6174653D2573206665653D256CF1
:1036B000752063656E74730D0A00000010B500F08C
:1036C000D9FA0649096848630548022101700021BA
:1036D0004170416801B10968816010BDA8010020F6
:1036E0007800002070B5104C00254FF4FA62E560B8
:1036F0002561606004F10C000280521042804FF49A
:1037000048728280857119B10868E060486820615C
:1037100000F0B0FA05490968486325706570606873
:1037200000B10068A06070BD78000020A8010020F2
:103730000348007808B1002070470120704700005E
:103740007800002002480078012800D0002070474F
:10375000780000200948817909B1408800E000889C
:10376000074909684863054802210C3801700121A6
:103770004170416801B10968816070478400002090
:10378000A80100200948017802290ED141680029CA
:103790000BD009688268891A00F10C029288914264
:1037A00003D3417801B101210170704778000020F6
:1037B000044A90700146906800B10068906102A0D0
:1037C000FEF7A0BE940000205B46534D5D202D3EC9
:1037D0002025640D0A000000FDF786F8FEF7E0FBE7
:1037E000FEF768FAFEF782FBFEF7CEFAFEF7FEFA66
:1037F000FEF748FBFEF796FBFEF7A6FAFEF7AEFBD8
:1038000000213248FDF718FE012231493148FEF708
:1038100075F800F0D7FC002000F028FC2C48801D33
:1038200000F0A4F82A491E31A1F11800FFF75AFF51
:103830002749891C081D00F095FBFFF741FA244831
:103840002630FFF7F1F82248801DFFF78BFC224855
:10385000FDF702FC2148FDF7FFFB21A0FEF752FE19
:103860001B4C00253234214E00F0BCF800F0AAFBBE
:1038700000F080FAFFF70CF91C4800F063F800280C
:103880001FD096F82310304611B101290CD018E052
:10389000217831B101780022701CFFF7B1FC25704E
:1038A0000FE0711C12A00AE0217B31B101780122E6
:1038B000701CFFF7A5FC257303E0711C16A0FEF732
:1038C00021FEFFF7CFFC00F00BFDCDE7A8010020A3
:1038D000020000203802002060010020F0010020DA
:1038E000696E6974206F6B200D0A0000E8000020EB
:1038F0005B4F43525D20676F7420494E20627574A0
:10390000206E6F742070656E64696E672C2064721F
:103910006F702025730D0A005B4F43525D20676F67
:1039200074204F555420627574206E6F742070653A
:103930006E64696E672C2064726F702025730D0AA7
:103940000000000010B500280BD0074C94F822109E
:1039500041B124222146FCF7F7FB002084F8220025
:10396000012010BD002010BD4808002010B50D4CEE
:103970000D494FF48062606001F5806000F0B7F996
:103980000A4800F06DF924210948FCF7F6FB0848C5
:1039900014212430FCF7F1FB606800B10068A060DE
:1039A00010BD00006C000020100300201C07002048
:1039B0004808002010B50146074800F0B0F918B9D2
:1039C00006480169491C016105494868002801D081
:1039D0000068886010BD0000100700206C080020FF
:1039E0006C0000202DE9FC4727484FF00008416893
:1039F00061B10A688168511A642907D9234B83F899
:103A00001080A3F81680A3F818808260DFF88090F9
:103A10001E4801A90C3800F070F9002832D01C4A69
:103A20009DF80410194800F0A3F80028F0D099F888
:103A300001004D460128EBD1A9880329E8D3A868E5
:103A400002784378847817461E4612A00094FEF749
:103A500059FDA988E01C8142DAD31F2C00D91F240C
:103A6000A9680B4D22460C35681CC91CFCF76CFB81
:103A70002919012081F801802E7085F8237085F8BE
:103A80002200C5E7BDE8FC876C0000201C07002071
:103A90003C0800205B4F43525D207278207479709F
:103AA000653D30783031206C656E3D257520623083
:103AB0003D25752062313D25752062323D25750D0D
:103AC0000A000000FEB54FF0AA018DF800104FF07B
:103AD00055018DF801101A494FF001064FF002030D
:103AE0000C78050004F101070F708DF804404FF0C9
:103AF00010028DF802608DF805304FF00001684625
:103B00008DF803208DF8061001D0012200E000227C
:103B10008DF808108DF807200721801CFEF7F2FFB2
:103B2000C6B28DF809600A22642369460548FDF78C
:103B30000BFF33462246294603A0FEF7E3FCFEBDF9
:103B40006C000020380200205B54585D2052455123
:103B50005F4F4352206C616E653D25752073657122
:103B60003D2575206372633D253032580D0A0000F3
:103B70002DE9F0410446C0681646401CE0600D4641
:103B8000227C0027012104F11A00092A36D2DFE83D
:103B900002F005090F141B22293F4C00AA2D41D128
:103BA00021743FE0552D01D102202FE0277439E028
:103BB000A574A5762183032028E0E574218B4A1C97
:103BC00022830D54042021E02575218B4A1C228379
:103BD0000D5405201AE0E582218B4A1C22830D54E6
:103BE000062013E0E18A41EA0521E182218B4A1C8B
:103BF00022830D54E08AB0F5807F03D92046FFF779
:103C00009DFA0FE008B1072000E00820207409E0C9
:103C1000218B4A1C22830D54208BE18A401F80B2E5
:103C20008842F2D20020BDE8F081E18A491DFEF70A
:103C300069FFA84210D12068401C2060A07C307031
:103C4000E07C7070207DB070E08AB08004F11F00CD
:103C5000B06027740120E6E76068401C6060A5E75B
:103C60000021016041608160C1600174C1820183F3
:103C7000704700000348817909B100887047408887
:103C800070470000840000202DE9F0471F46914650
:103C90008A46064604460025DFF8448016E000BF49
:103CA00039F815200020414600EB001331F813309D
:103CB000934210D100EB001008EB4002921C03D09D
:103CC00051462046FFF72AF810346D1CBD42E7DB51
:103CD000A01BBDE8F087401C2428E5D3F4E70000D2
:103CE0002E45000808B10020704701207047016090
:103CF00082800021C180018170470289C3889A4275
:103D000001D10020704703890268D25C0A70818863
:103D10000289491E521C114001810120704710B5D3
:103D20008288C388521E92B25B1C1A400389934258
:103D300001D1002010BDC48803681955C28001203C
:103D400010BD000010B501210348FCF727FC002836
:103D500000D0012010BD00000008014010B5022174
:103D60000348FCF71BFC002800D0012010BD000018
:103D7000000C01402DE9F0475149002000F0DEF829
:103D80004F4C0026A4F11805607828B10120FFF7F8
:103D90000BFA6E70A868E860A07810B10020FFF7F9
:103DA00003FA47490120091D00F0C8F8DFF8109117
:103DB000012709F1040999F8010028B10120FFF752
:103DC00009FA6F70A868E86099F8020010B1002045
:103DD000FFF700FAA0466078394C1C3478B1207E99
:103DE00068B927762770A86860600020FFF76AFE30
:103DF000A868A06084F8207032A0FEF783FB98F8D2
:103E0000020010B1267684F8206099F80100C846B7
:103E100080B1607E70B9677602202073A868206147
:103E20000120FFF74FFEA868606184F8217029A087
:103E3000FEF768FB98F8020010B1667684F82160FE
:103E4000207E78B1207868B1A068A968081A616AF4
:103E5000884207D30020FFF735FEA868A06021A0A4
:103E6000FEF750FB607E78B1207B68B16069A9687D
:103E7000081A616A884207D30120FFF723FEA86869
:103E800060611EA0FEF73EFB207848B16068A9681B
:103E9000081AE169884203D91EA0FEF733FB267099
:103EA000207B002809D02069A968081AE1698842A6
:103EB00003D91DA0FEF726FB2673BDE8F08700009E
:103EC000180000205B4F43525D2052455120494E5F
:103ED0000D0A00005B4F43525D20524551204F5563
:103EE000540D0A005B4F43525D2052455120494E0C
:103EF00020287265747279290D0A00005B4F4352C5
:103F00005D20524551204F555420287265747279B6
:103F1000290D0A005B4F43525D20494E2074696DA4
:103F2000656F75740D0A00005B4F43525D204F555D
:103F3000542074696D656F75740D0A0000290AD0EC
:103F400050B10748027A0A70427A4A70827A8A70BF
:103F5000002141728172704701480C38F2E700007D
:103F60008C08002070B5154A1E231446506023802B
:103F700009B10988118008B1066800E00026FFF742
:103F8000E1FEFFF7AFFE0546FFF7E8FEFFF7AAFEEA
:103F900004460B4800213246016041608160C160E7
:103FA000016141612946FEF783FD32462146BDE8A5
:103FB000704003480C30FEF77BBD00008C000020F1
:103FC0008008002070B50E484068002817D00668A9
:103FD000FFF7B8FEFFF786FE0546FFF7BFFEFFF7C7
:103FE00081FE0446324629460648FEF76BFD3246FE
:103FF0002146BDE8704003480C30FEF763BD70BD3C
:104000008C0000208008002010B5802817D20029DD
:1040100015DB402913DACB1701EB5374E31000EBE7
:10402000C31324F00700091A01208840C1B20448D4
:10403000002AC25C01D00A4300E08A43C25410BD8A
:104040009212002070B514460E46054607E0314630
:104050002846641CFEF798FE0835782D04DC002CF9
:1040600002D02278002AF2D170BD000008B1FF22F0
:1040700000E000224FF480610148FCF777B80000AF
:104080009212002010B53220FCF774F9AE2000F037
:10409000B7F9202000F0B4F9002000F0B1F9B02009
:1040A00000F0AEF9C82000F0ABF9002000F0A8F94C
:1040B000102000F0A5F9402000F0A2F9812000F0C6
:1040C0009FF97F2000F09CF9A12000F099F9A6202B
:1040D00000F096F9A82000F093F93F2000F090F945
:1040E000A42000F08DF9D32000F08AF9002000F020
:1040F00087F9D52000F084F9802000F081F9D920DB
:1041000000F07EF9F12000F07BF9DA2000F078F978
:10411000122000F075F9DB2000F072F9402000F069
:104120006FF98D2000F06CF9142000F069F9AF20D0
:1041300000F066F90020FFF799FFBDE8104000F09D
:1041400001B800002DE9F04FDFF870A087B000241F
:104150004FF0400B44F0B00000F052F9002000F0A6
:104160004FF9102000F04CF90AEBC41780268DF8A7
:1041700004B00DF104084FF0640901E0102E01D9DC
:10418000102500E035462A46394608F10100FBF7C4
:10419000DBFF681C83B201AA78210948CDF80090A2
:1041A000FCF7CCFA701B06042F44360CE6D1641CD5
:1041B000E4B2082CCED307B0BDE8F08F92120020F5
:1041C0000C01002010B5FFF75DFF04490020044AF0
:1041D0000870486010708860C86010BDC000002082
:1041E0007112002070B515460C4600B90EA00146AC
:1041F00013220E48FBF7CCFF0C480026C6740CB106
:10420000214600E008A1094820221430FBF7C0FF36
:104210000648294614304FF47A6280F82060BDE8E1
:104220007040052000F06AB8000000003C12002039
:1042300010B50C4600B909A0014620220848FBF73A
:10424000A7FF074900204FF47A6281F82000214639
:10425000BDE81040012000F051B80000000000004F
:104260007112002070B515460C4600B909A0014630
:1042700020220948FBF78CFF074900204FF47A629F
:1042800081F8200005482946C460BDE8704004203C
:1042900000F034B80000000071120020C0000020BF
:1042A00070B51E4614460D4600B90AA001462022EC
:1042B0000948FBF76DFF08490020002281F8200023
:1042C00006483146C0E90254BDE87040032000F0C2
:1042D00015B800000000000071120020C00000208E
:1042E000054881680269891AC82904D38168016177
:1042F000806800F00DB8704700000020034B187074
:1043000012B18818586070470020FBE7C0000020F9
:1043100030B5374C054689B0207840B1606830B17F
:10432000854204D3002229461046FFF7E7FF00200C
:10433000FFF79CFE2078062854D2DFE800F0030740
:104340002E2B4E512846FEF7D7FD4BE029A2202107
:104350006846FEF7E7F800210423274A0846FFF7DE
:1043600093FC254A0223383A10210020FFF78CFCE9
:104370006A4610212020FFF765FE204A10212820E0
:10438000FEF7A2FE1C4A03231C3A20210020FFF75F
:104390007BFC27E0FEF746FE24E0174A00210423B9
:1043A00008320846FFF770FC134A0323163A10211F
:1043B0000020FFF769FC104A0223343A2021002034
:1043C000FFF762FC20210BA20846FFF73BFE0B4AD9
:1043D00020212820FEF778FE04E0FEF7D5FD01E05D
:1043E000FEF738FD09B0BDE83040FFF7ABBE000076
:1043F000C00000203A00000086440008711200202E
:104400001CB5002101918DF8050064200090022365
:1044100001AA78210148FCF791F91CBD0C0100208C
:10442000010202030405060708090A0B0C0D0E0F12
:104430001010000000000000000001020304060745
:104440000809000000000102030443514351668F34
:104450004C72668F4C72668F4C72945ED84E668F2B
:104460004C72F25D3665668F4C72F78B1A904C88F1
:10447000F78BBB793A5728573A57668F868F695220
:10448000594F668F4D4F65513A5710629F522F65B5
:10449000D84E10629F52497B855F2F65D84E2F659D
:1044A000D84E10629F521995EF8BD0633A79CD9117
:1044B0000D5965513A57668F4D4FF25DE16E2A678F
:1044C0007E623052B08B555F20000000000000007B
:1044D0000000000000000000003A000000C0C00022
:1044E000000000000030300000002D00000000003F
:1044F00000000000010101010101015F0000000056
:104500000000000080808080808080802F0000007C
:10451000008060180400601806010000002E0000F2
:1045200000000000000000303000000000002857AC
:10453000080888C8380C0B0808E8080808080800AC
:10454000020100FF40414141417F41414141400062
:104550003A572020FF20200042E2524AC64240C083
:10456000000010301F0828108C4320184780403F5F
:104570000000668F0008884828180FE80808080817
:104580000808000008080909090909FF09090909BB
:1045900009080800868FC8B88FE88888E22222FEC2
:1045A00022FE2222E200081808FF0404FF08060188
:1045B000060142847F006952484AFA0AFE09F94915
:1045C000A80000F00000FF0022110B04FF040912F4
:1045D0002300000F40807F00594F808040205048CA
:1045E00044C344485020408080000040221A0242C8
:1045F000827F0202020A126000004D4F008060F8C4
:104600000710901011161010D0100000010000FFCC
:104610004040415E4040704E4140400065510000C6
:1046200000000001E21CE0000000000000008040EB
:1046300020100C03000000030C304080800010624A
:104640000000F8888888880808FF08090AC8080058
:1046500080601F0010201F80402116182641F8009E
:104660009F52080808F80808081010FF101010F0F2
:1046700000001030101F088848300E014080403F75
:1046800000004C7200FE20203F2000FC26A57C2468
:1046900024FC0000807F0101FF00080D0B0909FFC9
:1046A00009090800F78B4042CC0000445454547F61
:1046B00054545444400000007F201000FF1515158D
:1046C00055957F0000001A904042CC0000E2222A5B
:1046D0002AF22A2622E0000080403F4080FF89899C
:1046E00089BF89A9C9BF80004C88001088C43300E5
:1046F00040424242C24242424000020100FF0000EA
:10470000000040807F0000000000FA5100007C4063
:10471000404040FF40404040FC000000007C4040E2
:104720004040407F4040404040FC0000D37E20306D
:10473000AC632018084848487F484848080022676A
:104740002212121200FE4242424242FE0000977BB9
:104750000804F3525652525054535256F202020079
:10476000101097553D1515151515FD15171010004E
:10477000398D00023AAA6A3F2A2A2AFF2AAA2EE085
:1047800000000002819E4242221A2222425E8100E3
:10479000000028750000FE22222222FE2222222270
:1047A000FE00000080601F020202027F02024282BD
:1047B0007F000000F66500FC848484FC001010106B
:1047C0001010FF101000003F1010103F00000106F5
:1047D00040807F0000007F9580808080FF8080A0E7
:1047E000908884828080800000000000FF402112B9
:1047F000040810202040400043512020222222E2C1
:10480000222222E2222222202000804020100C03BB
:104810000000003F40404040780019954030EF24B0
:104820006448487F4848487F4848400001017F214C
:104830001100FF4949494949FF000000EF8B404200
:10484000CC0000809E92929292929E800000000086
:104850007F2094844424140F142444848400D0635F
:10486000101010FF109000FE9292929292FE0000A3
:104870000444827F0180423A4282FE9292928200F8
:104880003A7940404242424242C24242424242405F
:104890004000201008060040807F0000000204084D
:1048A0003000CD91101014D4545454FC525252D3B1
:1048B00012101000404050575555557F55555557CB
:1048C000504040000D59201008F75454545454548B
:1048D00054F404040000809090494D572525255537
:1048E0004D45808080002F6500088888888888FF73
:1048F0008888888808080000808080414224281029
:104900002824424180808000D84E008060F8071043
:104910001010101010FF10101000010000FF000018
:1049200000010640807F00000000BB79040404F40D
:1049300084D4A5A6A4D484F40404040000FE0202D6
:10494000123A1613121A3242827E0000497B080482
:104950002322262A22FA242322262A0202000109DF
:1049600009091969090949897D0909090100855F52
:10497000001088C433404848487F48C84848400031
:10498000020100FF00020A320242827F020202009C
:10499000945E0000FC0444840425C604040404E47A
:1049A000040040300F4040414E404063504C434073
:1049B0004000F25D0000E28282828282828282FE78
:1049C0000000000000003F40404040404040404068
:1049D00040780000366500FC0000FF004020D8173A
:1049E0001010F0101000000F0402FF00804021168C
:1049F000081621408000AC4E040404E4242425263B
:104A0000242424E4040404000040201B0242827E8B
:104A10000202020B10600000AA6C1060028C000001
:104A2000F888898E888888F8000004047E814030E8
:104A30000F000000000000010000256D1060020C56
:104A4000C010545454FF54547C10100004047C03D0
:104A50000010121212FF1212121000001D6E1060D0
:104A6000028C20D0485452D1129408D01000040473
:104A70007E0100FF1252927F005F807F0000805114
:104A80001012F2AAAABFA0E0A0A7AAAAEA090C00E5
:104A90002020AB6A2A3E2A2B2A3E2A6AAB2020001D
:104AA0006B8C424AD26A46D0087C4BCA6A5A4E483E
:104AB000780040807F0001004A4A2552897E041A0E
:104AC0002100914E404042424242C2424242424252
:104AD0004240400000207028242320202024283039
:104AE000E0000000BD8F404042CC0000020202F214
:104AF0000A06020000000040201F20404048504F9E
:104B0000404040404000D19E00003E222A3222FE1A
:104B100022322A223E0000008868090929C9090FAB
:104B200029C9090929C80800586E20C20C801090B4
:104B3000FF9000FC444444FC000004047E05020194
:104B4000FF0001FF444444FF0000967600F80C0B80
:104B5000F8100C242425262424140C00007F212185
:104B60007F8041310F01013F41417100819C10085C
:104B7000FCAAABAAAAFAAAAAAEA8F80000000202F0
:104B800002FAAAAAAAAAAAAAAAFA02020200B0656E
:104B900040445465C664544400FC4444C44240004C
:104BA00020124A827F020A92601F0000FF0000006C
:104BB000CF82044444445F44F44444445FC4040446
:104BC000040000108E40201807004080403F000184
:104BD0000E00596D20C20C801010FF1090FC444252
:104BE000C342400004047E0142827F81403F0000B6
:104BF000FF000000638D12D65A535AD6122864570C
:104C0000CA5652202000101715FD15171081BD45FA
:104C10003545BD0100000291005E525E405E525E6D
:104C20000000FE0222DA0600010107054585453D28
:104C30000100FF081008070042681010D0FF901014
:104C4000404444447F4444444000040300FF0003C4
:104C5000404444447F444444400018750010101000
:104C6000FF101010101010FF1010100000000000B6
:104C7000FF424242424242FF000000004B66404277
:104C80004A52427E4242427E42524A424000000024
:104C900000FF49494949494949FF000000009984FA
:104CA000229A8A8AAFAAAAAAAAAAAF8A8AAA1A00AC
:104CB0000050524A2A25538A7C081424224040007E
:104CC000559600FE225A8608284808FF08482808FA
:104CD000000000FF0408874121190701071921413D
:104CE0008100095408088888888888FF888888880F
:104CF00088080800000000FC44444444444444FC48
:104D000000000000FD9500F80102E02222FA2222B4
:104D1000E20202FE000000FF00206722221F1212A2
:104D20001B3080FF0000358D4040405E5252527F64
:104D30005252525E404040000080809F4141211D00
:104D40000121215F40800000A47C0000FE02965AF1
:104D500033FE325A9602FE0000000404051D1515AC
:104D60001515155595553504040052974044545473
:104D70005454547F5454545454444000000000FF91
:104D8000151515151555957F00000000CF8502E219
:104D900082F212D752D25217FA12169A1200128EBB
:104DA000621F003F253DA74027182641F000DD5D2A
:104DB000000000FF00000000FE00000000FF0000F7
:104DC0008040300F000000003F00000000FF0000A6
:104DD000815B201888888888898E888888888828B8
:104DE0001800000000000040807F0000000000006C
:104DF00000003C744444FC44440004E4242526247C
:104E000024E4040010301F080820100D41817F01A8
:104E10000509300000E010080810E000000F102025
:104E200020100F00001010F8000000000020203FAC
:104E30002020000000700808088870000030282436
:104E400022213000003008888848300000182020D7
:104E500020110E000000C02010F8000000070424FC
:104E6000243F240000F80888880808000019212041
:104E700020110E0000E0108888180000000F11209B
:104E800020110E0000380808C83808000000003F54
:104E9000000000000070880808887000001C2221B3
:104EA00021221C0000E010080810E0000000312260
:104EB00022110F000000C038E0000000203C230257
:104EC0000227382008F8888888700000203F2020BA
:104ED00020110E00C03008080808380007182020EC
:104EE0002010080008F808080810E000203F2020E3
:104EF00020100F0008F88888E8081000203F2020C4
:104F00002320180008F88888E8081000203F2000B7
:104F100003000000C03008080838000007182020EF
:104F2000221E020008F808000008F808203F2101AE
:104F300001213F20000808F8080800000020203F59
:104F40002020000000000808F8080800C0808080C9
:104F50007F00000008F888C028180800203F2001C2
:104F60002638200008F8080000000000203F20201C
:104F70002020300008F8F800F8F80800203F003F33
:104F8000003F200008F830C00008F808203F20004B
:104F900007183F00E01008080810E0000F1020205C
:104FA00020100F0008F808080808F000203F210131
:104FB00001010000E01008080810E0000F18242488
:104FC00038504F0008F8888888887000203F2000FB
:104FD000030C3020007088080808380000382021B1
:104FE00021221C00180808F8080818000000203FBB
:104FF0002000000008F808000008F808001F202022
:1050000020201F000878880000C8380800000738F2
:105010000E010000F80800F80008F800033C070043
:10502000073C0300081868808068180820302C03AB
:10503000032C30200838C800C83808000000203F82
:105040002000000010080808C83808002038262171
:10505000202018007450000800000020E800000024
:10506000782500085C510008E8000020B019000015
:1050700088250008000000001E000000000000005D
:105080000000000000000000000000000000000020
:1050900000000000D007E80320030000000000002B
:1050A000080700006400000000000000000000008D
:1050B00000000000000000000000000000000000F0
:1050C00000000000983A0000000000009411000069
:1050D00001000000100000000000000000127A0033
:1050E00000000000000000000000000000000000C0
:1050F00000000000000000000000000000000000B0
:10510000000000000000000001010000000000009D
:10511000000000000000000000000000000000008F
:1051200000000000140000002C010000080700002F
:10513000640000000000000000000000000000000B
:10514000000000000000000000100000D00000205F
:0C51500000000000320000000000000021
:04000005080000ED02
:00000001FF
